:020000040800F2
:1000000000000220752300081D220008232200089A
:10001000292200082F2200083522000800000000D5
:1000200000000000000000000000000011010108B5
:100030003B22000800000000F1020108390301081A
:10004000C5230008C5230008C5230008C5230008F0
:10005000C5230008C5230008C5230008C5230008E0
:10006000472200085522000863220008C523000823
:10007000C5230008C5230008C5230008C5230008C0
:10008000C5230008C5230008C5230008C5230008B0
:10009000C5230008C5230008C523000871220008F5
:1000A000C523000891220008C5230008C5230008C5
:1000B000C5230008C5230008C5230008A5220008A1
:1000C000C5230008C5230008C5230008C523000870
:1000D000C5230008C5230008C5230008C523000860
:1000E000B9220008C5230008C5230008C52300085D
:1000F000C5230008E9220008C5230008C52300081D
:10010000C5230008C5230008C5230008C52300082F
:10011000C5230008C5230008C5230008C52300081F
:10012000C5230008C5230008C5230008C52300080F
:10013000C52300080000000000000000C5230008DF
:10014000C5230008C5230008C5230008C5230008EF
:10015000C5230008C5230008C5230008C5230008DF
:10016000C5230008C5230008C5230008C5230008CF
:10017000C5230008C523000800000000000000009F
:04018000C52300088B
:1001900010B5054C237833B9044B13B10448AFF3C1
:1001A00000800123237010BD8002002000000000A9
:1001B000AC21010808B5034B1BB103490348AFF359
:1001C000008008BD0000000084020020AC2101086E
:1001D000034613F8012B002AFBD1181A0138704787
:1001E00081F0004102E000BF83F0004330B54FEAE8
:1001F00041044FEA430594EA050F08BF90EA020F55
:100200001FBF54EA000C55EA020C7FEA645C7FEAE7
:10021000655C00F0E2804FEA5454D4EB5555B8BF0A
:100220006D420CDD2C4480EA020281EA030382EA7B
:10023000000083EA010180EA020281EA0303362D0D
:1002400088BF30BD11F0004F4FEA01314FF4801CE0
:100250004CEA113102D0404261EB410113F0004FF2
:100260004FEA03334CEA133302D0524263EB4303A9
:1002700094EA050F00F0A780A4F10104D5F1200E47
:100280000DDB02FA0EFC22FA05F2801841F10001A2
:1002900003FA0EF2801843FA05F359410EE0A5F176
:1002A00020050EF1200E012A03FA0EFC28BF4CF0A7
:1002B000020C43FA05F3C01851EBE37101F000455D
:1002C00007D54FF0000EDCF1000C7EEB00006EEB6A
:1002D0000101B1F5801F1BD3B1F5001F0CD34908F4
:1002E0005FEA30004FEA3C0C04F101044FEA44524B
:1002F00012F5800F80F09A80BCF1004F08BF5FEAD2
:10030000500C50F1000041EB045141EA050130BDB1
:100310005FEA4C0C404141EB0101013C28BFB1F5C3
:10032000801FE9D291F0000F04BF01460020B1FA0E
:1003300081F308BF2033A3F10B03B3F120020CDAE1
:100340000C3208DD02F1140CC2F10C0201FA0CF0BF
:1003500021FA02F10CE002F11402D8BFC2F1200C24
:1003600001FA02F120FA0CFCDCBF41EA0C019040DA
:10037000E41AA2BF01EB0451294330BD6FEA040423
:100380001F3C1CDA0C340EDC04F11404C4F120020E
:1003900020FA04F001FA02F340EA030021FA04F320
:1003A00045EA030130BDC4F10C04C4F1200220FA77
:1003B00002F001FA04F340EA0300294630BD21FAB5
:1003C00004F0294630BD94F0000F83F4801306BF7B
:1003D00081F480110134013D4EE77FEA645C18BF6F
:1003E0007FEA655C29D094EA050F08BF90EA020F06
:1003F00005D054EA000C04BF1946104630BD91EAFE
:10040000030F1EBF0021002030BD5FEA545C05D100
:100410004000494128BF41F0004130BD14F580043F
:100420003CBF01F5801130BD01F0004545F0FE41B3
:1004300041F470014FF0000030BD7FEA645C1ABFE8
:10044000194610467FEA655C1CBF0B46024650EA1F
:10045000013406BF52EA033591EA030F41F400214B
:1004600030BD00BF90F0000F04BF0021704730B5D1
:100470004FF4806404F132044FF000054FF00001A6
:1004800050E700BF90F0000F04BF0021704730B567
:100490004FF4806404F1320410F0004548BF40423C
:1004A0004FF000013EE700BF42004FEAE2014FEA91
:1004B00031014FEA02701FBF12F07F4393F07F4F6C
:1004C00081F06051704732F07F4208BF704793F06F
:1004D0007F4F04BF41F40021704730B54FF4607482
:1004E00001F0004521F000411CE700BF50EA010285
:1004F00008BF704730B54FF000050AE050EA01022E
:1005000008BF704730B511F0004502D5404261EB9D
:1005100041014FF4806404F132045FEA915C3FF4DE
:10052000D8AE4FF003025FEADC0C18BF03325FEA7B
:10053000DC0C18BF033202EBDC02C2F1200300FA2C
:1005400003FC20FA02F001FA03FE40EA0E0021FA51
:1005500002F11444BDE600BF70B54FF0FF0C4CF43F
:10056000E06C1CEA11541DBF1CEA135594EA0C0FF1
:1005700095EA0C0F00F0DEF82C4481EA030621EA2C
:100580004C5123EA4C5350EA013518BF52EA033567
:1005900041F4801143F4801338D0A0FB02CE4FF019
:1005A0000005E1FB02E506F00042E0FB03E54FF049
:1005B0000006E1FB03569CF0000F18BF4EF0010E41
:1005C000A4F1FF04B6F5007F64F5407404D25FEA3D
:1005D0004E0E6D4146EB060642EAC62141EA5551F0
:1005E0004FEAC52040EA5E504FEACE2EB4F1FD0C32
:1005F00088BFBCF5E06F1ED8BEF1004F08BF5FEAB0
:10060000500E50F1000041EB045170BD06F0004661
:1006100046EA010140EA020081EA0301B4EB5C040E
:10062000C2BFD4EB0C0541EA045170BD41F4801106
:100630004FF0000E013C00F3AB8014F1360FDEBF2B
:10064000002001F0004170BDC4F10004203C35DA07
:100650000C341BDC04F11404C4F1200500FA05F38A
:1006600020FA04F001FA05F240EA020001F000422B
:1006700021F0004110EBD37021FA04F642EB0601A1
:100680005EEA430E08BF20EAD37070BDC4F10C04CB
:10069000C4F1200500FA04F320FA05F001FA04F28F
:1006A00040EA020001F0004110EBD37041F100017B
:1006B0005EEA430E08BF20EAD37070BDC4F1200586
:1006C00000FA05F24EEA020E20FA04F301FA05F2EE
:1006D00043EA020321FA04F001F0004121FA04F296
:1006E00020EA020000EBD3705EEA430E08BF20EA66
:1006F000D37070BD94F0000F0FD101F000464000A0
:1007000041EB010111F4801F08BF013CF7D041EA21
:10071000060195F0000F18BF704703F00046520025
:1007200043EB030313F4801F08BF013DF7D043EAF6
:100730000603704794EA0C0F0CEA135518BF95EAAC
:100740000C0F0CD050EA410618BF52EA4306D1D133
:1007500081EA030101F000414FF0000070BD50EA52
:10076000410606BF1046194652EA430619D094EADC
:100770000C0F02D150EA013613D195EA0C0F05D1C6
:1007800052EA03361CBF104619460AD181EA03011A
:1007900001F0004141F0FE4141F470014FF00000D2
:1007A00070BD41F0FE4141F4780170BD70B54FF06D
:1007B000FF0C4CF4E06C1CEA11541DBF1CEA1355ED
:1007C00094EA0C0F95EA0C0F00F0A7F8A4EB0504CF
:1007D00081EA030E52EA03354FEA013100F08880C6
:1007E0004FEA03334FF0805545EA131343EA12638F
:1007F0004FEA022245EA111545EA10654FEA002644
:100800000EF000419D4208BF964244F1FD0404F5FC
:10081000407402D25B084FEA3202B61A65EB030558
:100820005B084FEA32024FF480104FF4002CB6EB15
:10083000020E75EB030E22BFB61A754640EA0C0095
:100840005B084FEA3202B6EB020E75EB030E22BFD5
:10085000B61A754640EA5C005B084FEA3202B6EB16
:10086000020E75EB030E22BFB61A754640EA9C00D5
:100870005B084FEA3202B6EB020E75EB030E22BFA5
:10088000B61A754640EADC0055EA060E18D04FEA63
:10089000051545EA16754FEA06164FEAC30343EA03
:1008A00052734FEAC2025FEA1C1CC0D111F4801FD0
:1008B0000BD141EA00014FF000004FF0004CB6E7C9
:1008C00011F4801F04BF01430020B4F1FD0C88BF68
:1008D000BCF5E06F3FF6AFAEB5EB030C04BFB6EB73
:1008E000020C5FEA500C50F1000041EB045170BD66
:1008F0000EF0004E4EEA113114EB5C04C2BFD4EB93
:100900000C0541EA045170BD41F480114FF0000E16
:10091000013C90E645EA060E8DE60CEA135594EA92
:100920000C0F08BF95EA0C0F3FF43BAF94EA0C0F95
:100930000AD150EA01347FF434AF95EA0C0F7FF40A
:1009400025AF104619462CE795EA0C0F06D152EA5E
:1009500003353FF4FDAE1046194622E750EA410642
:1009600018BF52EA43067FF4C5AE50EA41047FF453
:100970000DAF52EA43057FF4EBAE12E74FF0FF3CB8
:1009800006E000BF4FF0010C02E000BF4FF0010C89
:100990004DF804CD4FEA410C7FEA6C5C4FEA430C02
:1009A00018BF7FEA6C5C1BD001B050EA410C0CBF51
:1009B00052EA430C91EA030F02BF90EA020F0020B3
:1009C000704710F1000F91EA030F58BF994208BF1A
:1009D00090422CBFD8176FEAE37040F001007047D7
:1009E0004FEA410C7FEA6C5C02D150EA013C07D12E
:1009F0004FEA430C7FEA6C5CD6D152EA033CD3D079
:100A00005DF8040B704700BF8446104662468C4672
:100A10001946634600E000BF01B5FFF7B7FF0028A5
:100A200048BF10F1000F01BD4DF808EDFFF7F4FFCE
:100A30000CBF012000205DF808FB00BF4DF808ED59
:100A4000FFF7EAFF34BF012000205DF808FB00BF7C
:100A50004DF808EDFFF7E0FF94BF012000205DF89E
:100A600008FB00BF4DF808EDFFF7CEFF94BF012053
:100A700000205DF808FB00BF4DF808EDFFF7C4FF4C
:100A800034BF012000205DF808FB00BF4FEA410C95
:100A90007FEA6C5C02D150EA013C0AD14FEA430C78
:100AA0007FEA6C5C02D152EA033C02D14FF00000B5
:100AB00070474FF0010070474FEA410212F50012F3
:100AC00015D211D56FF47873B3EB625212D94FEA95
:100AD000C12343F0004343EA505311F0004F23FA7F
:100AE00002F018BF404270474FF00000704750EAD4
:100AF000013005D111F0004008BF6FF00040704791
:100B00004FF00000704700BF4FEA4102B2F1E043EE
:100B100024BFB3F5001CDCF1FE5C0DD901F0004CE4
:100B20004FEAC0024CEA5070B2F1004F40EB830034
:100B300008BF20F00100704711F0804F21D113F160
:100B40003872BCBF01F00040704741F480114FEA99
:100B50005252C2F11802C2F1200C10FA0CF320FA22
:100B600002F018BF40F001004FEAC1234FEAD3233F
:100B700003FA0CFC40EA0C0023FA02F34FEA4303A9
:100B8000CCE77FEA625307D150EA01331EBF4FF032
:100B9000FE4040F44000704701F0004040F0FE404D
:100BA00040F40000704700BF80F0004002E000BF4A
:100BB00081F0004142001FBF5FEA410392EA030F48
:100BC0007FEA226C7FEA236C6AD04FEA1262D2EB92
:100BD0001363C1BFD218414048404140B8BF5B4297
:100BE000192B88BF704710F0004F40F4000020F030
:100BF0007F4018BF404211F0004F41F4000121F046
:100C00007F4118BF494292EA030F3FD0A2F101028F
:100C100041FA03FC10EB0C00C3F1200301FA03F1CD
:100C200000F0004302D5494260EB4000B0F5000FF0
:100C300013D3B0F1807F06D340084FEA310102F1AF
:100C40000102FE2A51D2B1F1004F40EBC25008BF61
:100C500020F0010040EA03007047490040EB00002B
:100C6000013A28BFB0F5000FEDD2B0FA80FCACF12C
:100C7000080CB2EB0C0200FA0CF0AABF00EBC25059
:100C800052421843BCBFD0401843704792F0000F47
:100C900081F4000106BF80F400000132013BB5E79A
:100CA0004FEA41037FEA226C18BF7FEA236C21D010
:100CB00092EA030F04D092F0000F08BF0846704775
:100CC00090EA010F1CBF0020704712F07F4F04D143
:100CD000400028BF40F00040704712F100723CBF56
:100CE00000F50000704700F0004343F0FE4040F480
:100CF000000070477FEA226216BF08467FEA23633E
:100D00000146420206BF5FEA412390EA010F40F428
:100D1000800070474FF0000304E000BF10F0004374
:100D200048BF40425FEA000C08BF704743F096435B
:100D300001464FF000001CE050EA010208BF704776
:100D40004FF000030AE000BF50EA010208BF7047FD
:100D500011F0004302D5404261EB41015FEA010C12
:100D600002BF84460146002043F0B64308BFA3F10A
:100D70008053A3F50003BCFA8CF2083AA3EBC253EC
:100D800010DB01FA02FC634400FA02FCC2F120020B
:100D9000BCF1004F20FA02F243EB020008BF20F042
:100DA0000100704702F1200201FA02FCC2F12002A8
:100DB00050EA4C0021FA02F243EB020008BF20EA9D
:100DC000DC7070474FF0FF0C1CEAD0521EBF1CEACB
:100DD000D15392EA0C0F93EA0C0F6FD01A4480EAB9
:100DE000010C400218BF5FEA41211ED04FF00063A2
:100DF00043EA501043EA5111A0FB01310CF00040CE
:100E0000B1F5000F3EBF490041EAD3715B0040EAF3
:100E1000010062F17F02FD2A1DD8B3F1004F40EBC3
:100E2000C25008BF20F00100704790F0000F0CF096
:100E3000004C08BF49024CEA502040EA51207F3A5A
:100E4000C2BFD2F1FF0340EAC250704740F4000035
:100E50004FF00003013A5DDC12F1190FDCBF00F026
:100E600000407047C2F10002410021FA02F1C2F1D4
:100E7000200200FA02FC5FEA310040F1000053EA70
:100E80004C0308BF20EADC70704792F0000F00F0BE
:100E9000004C02BF400010F4000F013AF9D040EAC4
:100EA0000C0093F0000F01F0004C02BF490011F458
:100EB000000F013BF9D041EA0C018FE70CEAD15356
:100EC00092EA0C0F18BF93EA0C0F0AD030F0004CD6
:100ED00018BF31F0004CD8D180EA010000F000408A
:100EE000704790F0000F17BF90F0004F084691F048
:100EF000000F91F0004F14D092EA0C0F01D1420282
:100F00000FD193EA0C0F03D14B0218BF084608D14A
:100F100080EA010000F0004040F0FE4040F4000094
:100F2000704740F0FE4040F4400070474FF0FF0C27
:100F30001CEAD0521EBF1CEAD15392EA0C0F93EA6E
:100F40000C0F69D0A2EB030280EA010C49024FEAC0
:100F5000402037D04FF0805343EA111143EA101379
:100F60000CF000408B4238BF5B0042F17D024FF431
:100F7000000C8B4224BF5B1A40EA0C00B3EB510F0C
:100F800024BFA3EB510340EA5C00B3EB910F24BFF5
:100F9000A3EB910340EA9C00B3EBD10F24BFA3EB7A
:100FA000D10340EADC001B0118BF5FEA1C1CE0D142
:100FB000FD2A3FF650AF8B4240EBC25008BF20F0F5
:100FC000010070470CF0004C4CEA50207F32C2BF49
:100FD000D2F1FF0340EAC250704740F400004FF0E6
:100FE0000003013A37E792F0000F00F0004C02BF17
:100FF000400010F4000F013AF9D040EA0C0093F0E1
:10100000000F01F0004C02BF490011F4000F013B3A
:10101000F9D041EA0C0195E70CEAD15392EA0C0FA2
:1010200008D142027FF47DAF93EA0C0F7FF470AFDA
:10103000084676E793EA0C0F04D14B023FF44CAF1D
:1010400008466EE730F0004C18BF31F0004CCAD1B2
:1010500030F000427FF45CAF31F000437FF43CAFEE
:101060005FE700BF4FF0FF3C06E000BF4FF0010C10
:1010700002E000BF4FF0010C4DF804CD4FEA4002F2
:101080004FEA41037FEA226C18BF7FEA236C11D03C
:1010900001B052EA530C18BF90EA010F58BFB2EBEF
:1010A000030088BFC81738BF6FEAE17018BF40F06F
:1010B000010070477FEA226C02D15FEA402C05D123
:1010C0007FEA236CE4D15FEA412CE1D05DF8040BA8
:1010D000704700BF844608466146FFE70FB5FFF73B
:1010E000C9FF002848BF10F1000F0FBD4DF808EDF3
:1010F000FFF7F4FF0CBF012000205DF808FB00BFE4
:101100004DF808EDFFF7EAFF34BF012000205DF83D
:1011100008FB00BF4DF808EDFFF7E0FF94BF01208A
:1011200000205DF808FB00BF4DF808EDFFF7D2FF87
:1011300094BF012000205DF808FB00BF4DF808EDCA
:10114000FFF7C8FF34BF012000205DF808FB00BF97
:101150004FEA4002B2F1FE4F0FD34FF09E03B3EBC4
:1011600012620DD94FEA002343F0004310F0004F04
:1011700023FA02F018BF404270474FF0000070475A
:1011800012F1610F01D1420205D110F0004008BFF9
:101190006FF0004070474FF00000704742000ED2E1
:1011A000B2F1FE4F0BD34FF09E03B3EB126209D4A2
:1011B0004FEA002343F0004323FA02F070474FF058
:1011C0000000704712F1610F01D1420202D14FF0CD
:1011D000FF3070474FF00000704700BF53B94AB965
:1011E000002908BF00281CBF4FF0FF314FF0FF302F
:1011F00000F06EB9ADF1080C6DE904CE00F006F810
:10120000DDF804E0DDE9022304B070472DE9F04782
:10121000089E0D4604468E46002B40F083808A428D
:10122000174647D9B2FA82F34BB1C3F1200105FA50
:1012300003FE20FA01F19F4041EA0E0E9C404FEA66
:101240001748BEFBF8FC1FFA87F908FB1CE20CFBF1
:1012500009F0210C41EA024290420AD9BA180CF175
:10126000FF3180F01881904240F21581ACF1020C00
:101270003A44121AB2FBF8F008FB102200FB09F105
:10128000A4B244EA0244A14209D93C1900F1FF3258
:1012900080F00381A14240F2008102383C44641A8C
:1012A000002140EA0C401EB10022DC40C6E90042A9
:1012B000BDE8F08702B9FFDEB2FA82F3002B4FD10E
:1012C0008D1A01214FEA124E1FFA82F8B5FBFEFC7F
:1012D0000EFB1C5508FB0CF0220C42EA0545A84207
:1012E00007D97D190CF1FF3202D2A84200F2E98041
:1012F00094462D1AB5FBFEF00EFB105508FB00F8C6
:10130000A4B244EA0544A04507D93C1900F1FF32D4
:1013100002D2A04500F2D9801046A4EB080440EAAE
:101320000C40C0E78B4208D9002E00F0B1800021AC
:10133000C6E900050846BDE8F087B3FA83F1002945
:101340004BD1AB4202D3824200F2B980841A65EBE2
:10135000030301209E46002EAAD0C6E9004EA7E74F
:101360009F40C3F12002D1404FEA174EB1FBFEF07F
:101370001FFA87F80EFB101124FA02F29D4000FBC1
:1013800008FC2A43150C45EA0145AC4504FA03F470
:1013900009D97D1900F1FF3180F08F80AC4540F212
:1013A0008C8002383D44A5EB0C05B5FBFEF10EFB2D
:1013B000115C01FB08F995B245EA0C45A94507D92E
:1013C0007D1901F1FF3274D2A94572D902393D4429
:1013D000A5EB090541EA004178E7C1F120078B4000
:1013E00022FA07FC4CEA030C25FA07F44FEA1C4EDC
:1013F000B4FBFEF91FFA8CF80EFB194420FA07F330
:1014000009FB08FA8D401D432B0C43EA0444A24516
:1014100002FA01F200FA01F309D91CEB040409F104
:10142000FF3048D2A24546D9A9F102096444A4EB91
:101430000A04B4FBFEF00EFB104400FB08FAADB248
:1014400045EA0444A24508D91CEB040400F1FF3529
:101450002DD2A2452BD90238644440EA0940A0FBB2
:101460000289A4EB0A044C45C6464D4619D316D052
:101470005EB1B3EB0E0264EB050404FA07F722FA3F
:1014800001F31F43CC40C6E900740021BDE8F0879A
:10149000314630460CE78C46EBE61046FFE6434506
:1014A000E6D2B8EB020E69EB0C050138E0E72846FE
:1014B000D3E711468CE78146B9E7084673E708464B
:1014C00049E7ACF1020C3D4413E702383C4424E701
:1014D000704700BF80B582B000AF0346FB80FB8839
:1014E000B3F5805F02D1002008F044F8FB88B3F523
:1014F000804F02D1002008F03DF8FB88B3F5005F73
:1015000002D1012008F036F8FB88B3F5004F01D175
:1015100008F0BAF8FB88B3F5805F16D0B3F5805FAA
:1015200027DCB3F5006F0BD0B3F5006F21DC102B77
:101530001AD0102B1DDC042B0CD0082B0FD018E078
:10154000104B1B680020984713E00E4B1B680120CE
:1015500098470EE00B4B1B680220984709E0094BA7
:101560001B680320984704E0064B1B68042098473B
:1015700000BF054BDB69FA881046984700BF083763
:10158000BD4680BD0C00002004010020B0B59CB019
:1015900004AF614804F0AEF8002387F852305F4A88
:1015A00007F1400392E803001860043319805C4B94
:1015B0001C68381D4FF4AF730093002307F14002FD
:1015C00006CAA047564B5B683A1D40F2DC511046F4
:1015D0009847544B1B68202153489847514B9B68B0
:1015E0000021012098474F4B5B6898474F4B1C6880
:1015F0004F4B19784F4B1A784F4B5048A0474B4BE5
:101600009C684FF4FA734E4A4E490120A047444B60
:101610001B6B3A1D10469847034687F8523000234B
:10162000FB65012387F85B3000237B65002387F887
:10163000533000F0F7FE02467B6DD31A40F2ED22E4
:1016400093420BD9404941480CF02EF897F853309B
:10165000DB4387F8533000F0E5FE78653A4B1B78A2
:101660001D4697F85330002B01D03A2200E020228B
:10167000354B5B781C4697F85330002B01D03A234A
:1016800000E020233049897807F148000291019356
:10169000009413462A462E490FF00AFA97F85B3059
:1016A000002B08D0214B9C6807F148024B232549A9
:1016B0000120A04707E01D4B9C6807F148024B231F
:1016C00024490120A047164B1B6B3A1D1046984732
:1016D000034687F8523097F85230642B16D0FB6DD2
:1016E0000133FB65FB6D03F00103002B0AD10023DE
:1016F000FB6597F85B30002B0CBF01230023DBB2A6
:1017000087F85B30044803F0F5FF92E700BF00BFA5
:101710006037BD46B0BD00BFFCBE0020C821010837
:1017200030010020A8010020A8BE00209401002064
:101730004D2901084E2901087C2F01085029010874
:10174000142301081C2301089CBE002098BE002021
:1017500028230108F827010880B500AF00F034FE07
:1017600000F05EF800F0A8F900F030F900F0B8F8E9
:1017700000F0E4F800F078F900F00EF9184B1B685F
:101780009847FFF703FF0CF0ADF9164A0021164801
:101790000CF036FA0346154A1360154A0021154825
:1017A0000CF02EFA0346144A1360144A0021144820
:1017B0000CF026FA0346134A1360134A002113481B
:1017C0000CF01EFA0346124A1360124A0021124816
:1017D0000CF016FA0346114A13600CF0B5F9FEE757
:1017E0000401002060220108691D000884BF002058
:1017F00084220108C57100085CBF0020A8220108EE
:101800002D9A000860BF0020CC220108118000083A
:10181000D0BF0020F022010851A50008D4BF00204D
:1018200080B596B000AF07F128033022002118469A
:101830000FF016F807F1140300221A605A609A603C
:10184000DA601A613B4600221A605A609A60DA60D8
:101850001A610A23BB6201237B631023BB6301234C
:10186000FB6302233B6400237B640823BB64C8231F
:10187000FB6404233B6504237B6507F128031846BA
:1018800003F07CFF0346002B01D000F035FB0F2353
:101890007B610223BB610023FB614FF4A0533B62D9
:1018A0004FF480537B6207F114030321184604F0C0
:1018B000B5F90346002B01D000F01EFB04233B606A
:1018C0004FF40073FB603B46184604F0C7FB034629
:1018D000002B01D000F010FB00BF5837BD4680BD83
:1018E00080B500AF124B134A1A60114B124A5A606E
:1018F0000F4B00229A600E4B0022DA600C4B4FF423
:1019000080421A610A4B00225A61094B00229A61F7
:10191000074B0022DA61064B00221A62044801F0EC
:101920000BFA0346002B01D000F0E6FA00BF80BDA1
:10193000A8BE002000540040801A060080B500AF09
:10194000124B134A1A60114B124A5A600F4B002275
:101950009A600E4B0022DA600C4B4FF480421A6101
:101960000A4B00225A61094B00229A61074B002260
:10197000DA61064B00221A62044801F0DDF90346E1
:10198000002B01D000F0B8FA00BF80BD08BF0020D6
:1019900000580040A086010080B500AF094B0A4AFC
:1019A0001A60084B04225A60064B40F6FF729A6098
:1019B000044803F05DFE0346002B01D000F09CFAC2
:1019C00000BF80BDFCBE00200030004080B584B068
:1019D00000AF3B1D00221A605A609A6000233B60F2
:1019E0001F4B204A1A601E4B00225A601C4B7F225C
:1019F0009A601B4BFF22DA60194B00221A61184BC8
:101A000000225A61164B00229A61154804F01CFC12
:101A10000346002B01D000F06FFA0BF0F7FD0346F0
:101A2000002B18D100233B7100237B710023BB7175
:101A30000023BB600023FB6005233B7002237B7007
:101A40001923BB701623FB703A1D3B4611461846FE
:101A50000BF056FE00E000BF1037BD4680BD00BF52
:101A600064BF00200028004080B500AF104B114A31
:101A70001A600F4B4CF24F325A600D4B00229A60A5
:101A80000B4B4FF47A72DA60094B00221A61084B53
:101A900080229A61064804F016FF0346002B01D00D
:101AA00000F02AFA024804F05DFF00BF80BD00BFCD
:101AB00088BF00200020004080B58AB000AF07F149
:101AC000140300221A605A609A60DA601A610023D7
:101AD0003B61A04B1B6B9F4A43F0040313639D4B78
:101AE0001B6B03F004033B613B690023FB60994BD4
:101AF0001B6B984A43F080031363964B1B6B03F0F8
:101B00008003FB60FB680023BB60924B1B6B914A18
:101B100043F0010313638F4B1B6B03F00103BB60A6
:101B2000BB6800237B608B4B1B6B8A4A43F002032C
:101B30001363884B1B6B03F002037B607B680023FD
:101B40003B60844B1B6B834A43F008031363814B58
:101B50001B6B03F008033B603B680122E0217E48D9
:101B600001F0B9F8012230217C4801F0B4F80122DB
:101B700003217B4801F0AFF800224FF481517848EF
:101B800001F0A9F800224FF40071734801F0A3F8A6
:101B9000E0237B610123BB610123FB6101233B62E5
:101BA00007F1140319466C4800F0E2FD30237B6115
:101BB0000123BB610123FB6101233B6207F1140395
:101BC0001946664800F0D4FD03237B610123BB6105
:101BD0000123FB6101233B6207F1140319466048AE
:101BE00000F0C6FD4FF481537B610123BB610023EC
:101BF000FB6101233B6207F114031946584800F0CA
:101C0000B7FD46F218037B614FF40413BB61012357
:101C1000FB6107F114031946514800F0A9FD4FF488
:101C200010737B614FF48813BB610023FB6107F1E4
:101C300014031946494800F09BFD4FF4B0637B61E3
:101C40000023BB610023FB6107F1140319464348DD
:101C500000F08EFD4FF480737B614FF48813BB61FD
:101C60000023FB6107F1140319463B4800F080FD97
:101C70004FF400737B610123BB610023FB610123EF
:101C80003B6207F114031946334800F071FD4FF42D
:101C900080637B610023BB610123FB6107F11403B7
:101CA00019462D4800F064FD4FF400437B614FF46A
:101CB0000413BB610023FB6107F114031946264896
:101CC00000F056FD4FF4C0537B614FF40413BB6129
:101CD0000123FB6107F114031946204800F048FD79
:101CE00004237B614FF40413BB610123FB6107F103
:101CF000140319461B4800F03BFD00220521082073
:101D000000F0CBFC082000F0E4FC002205210920B3
:101D100000F0C3FC092000F0DCFC002205210A20B1
:101D200000F0BBFC0A2000F0D4FC002205211720A3
:101D300000F0B3FC172000F0CCFC00220521282085
:101D400000F0ABFC282000F0C4FC00BF2837BD46E3
:101D500080BD00BF00380240000002400008024081
:101D600000040240000C024090B58BB006AF7860D2
:101D7000344B9B68344935489847324BDC68344BC8
:101D80000493344B0393344B0293344B0193344B01
:101D90000093344B344A35493548A047294B1B69D9
:101DA000344A354935489847264B5B6934493548AC
:101DB0009847354803F09EFC224B1B689847334BED
:101DC0001B68984702E032200BF0FAFF1D4B5B685E
:101DD00098470346002BF6D02D4B5B6B98470023AA
:101DE000FB730023BB73FB7B0133FB73FA7B294B33
:101DF000A3FB0213D9080B469B000B445B00D31ACC
:101E0000DBB2002B12D1204803F074FCBB7B002B0B
:101E100014BF01230023DBB283F00103DBB2BB73E9
:101E2000BB7B03F00103BB730123FB73164803F074
:101E300061FC054905480BF037FC4FF4FA700BF0D4
:101E4000BFFFD0E7440000209CBE002098BE0020C9
:101E500004060020FC050020780600207C060020F7
:101E6000F4050020CF050020CB050020D705002079
:101E7000D305002096060020920600208006002050
:101E80007006002074060020FCBE002078000020B0
:101E90000C000020CDCCCCCC80B582B000AF7860F7
:101EA0007B681B68114A934214D1002007F07CFB29
:101EB000012007F079FB07F0F5FB0D4B1B78013390
:101EC000DAB20B4B1A700A4B1B78092B02D9084B5C
:101ED00000221A707B681B68064A934201D100F009
:101EE0008FFA00BF0837BD4680BD00BF002000400C
:101EF0009C0200200000014080B500AF72B600BF18
:101F0000034B5B68012142F210709847F8E700BF6D
:101F10000401002080B582B000AF00237B60124B2B
:101F20005B6C114A43F4804353640F4B5B6C03F4C6
:101F300080437B607B6800233B600B4B1B6C0A4A31
:101F400043F080531364084B1B6C03F080533B60D9
:101F50003B6800220F216FF0010000F09EFB00BFE4
:101F60000837BD4680BD00BF0038024080B58CB048
:101F700000AF786007F11C0300221A605A609A6073
:101F8000DA601A617B681B68364A934234D10023B9
:101F9000BB61354B1B6B344A43F002031363324B76
:101FA0001B6B03F00203BB61BB69C023FB611223FF
:101FB0003B6200237B620323BB620423FB6207F1C5
:101FC0001C031946294800F0D3FB00237B61264BF4
:101FD0001B6C254A43F400131364234B1B6C03F45E
:101FE00000137B617B69002205211F2000F055FB57
:101FF0001F2000F06EFB31E07B681B681C4A934297
:102000002CD100233B61184B1B6B174A43F0020392
:102010001363154B1B6B03F002033B613B694FF4E9
:102020004063FB6112233B6201237B620323BB629B
:102030000423FB6207F11C0319460C4800F098FBCF
:102040000023FB60084B1B6C074A43F480031364B6
:10205000054B1B6C03F48003FB60FB6800BF30374B
:10206000BD4680BD005400400038024000040240DC
:102070000058004080B582B000AF78607B681B6874
:10208000164A934211D1164B1B6C154A23F40013C8
:1020900013644021134800F009FD8021114800F02D
:1020A00005FD1F2000F023FB14E07B681B680E4A2F
:1020B00093420FD10A4B1B6C094A23F4800313642B
:1020C0004FF48061074800F0F1FC4FF400610548CF
:1020D00000F0ECFC00BF0837BD4680BD0054004056
:1020E00000380240000402400058004080B483B031
:1020F00000AF78607B681B68054A934202D1054BAC
:1021000001221A6000BF0C37BD4680BC704700BF7B
:10211000002800403C0E474280B584B000AF786094
:102120007B681B680E4A934215D10023FB600D4B60
:102130001B6C0C4A43F4807313640A4B1B6C03F44E
:102140008073FB60FB68002205212D2000F0A5FABA
:102150002D2000F0BEFA00BF1037BD4680BD00BF85
:10216000002000400038024080B58CB000AF78609D
:102170000023FB620023BB6200227968192000F073
:102180008CFA192000F0A5FA0023FB601F4B5B6C52
:102190001E4A43F0010353641C4B5B6C03F00103C4
:1021A000FB60FB6807F1100207F1140311461846A3
:1021B00003F024FF03F000FF03465B00FB62FB6AB1
:1021C000134AA2FB03239B0C013BBB62114B124A37
:1021D0001A60104B40F2E732DA600E4ABB6A536075
:1021E0000C4B00221A610B4B00229A60094804F044
:1021F0006AFB0346002B04D1064804F0B3FB0346F8
:1022000000E0012318463037BD4680BD003802404B
:1022100083DE1B43D8BF00200000014080B400AF24
:10222000FEE780B400AFFEE780B400AFFEE780B405
:1022300000AFFEE780B400AFFEE780B400AF00BFA0
:10224000BD4680BC704780B500AF042000F05CFD47
:1022500000BF80BD80B500AF082000F055FD00BF75
:1022600080BD80B500AF102000F04EFD00BF80BDE6
:1022700080B500AF402000F047FD4FF4807000F0C3
:1022800043FD4FF4007000F03FFD00BF80BD000033
:1022900080B500AF024804F0D3FB00BF80BD00BF93
:1022A000D8BF002080B500AF024801F00BFB00BF93
:1022B00080BD00BFA8BE002080B500AF4FF4006015
:1022C00000F022FD4FF4805000F01EFD4FF400504E
:1022D00000F01AFD4FF4804000F016FD4FF400406E
:1022E00000F012FD00BF80BD80B500AF024804F0D1
:1022F000A7FB00BF80BD00BF88BF002080B586B0AF
:1023000000AF7860144A154BD31A7B617B693B613F
:10231000134B1B68002B02D1114B124A1A60104B51
:102320001A687B6813443A699A4207D20EF05EFA43
:1023300003460C221A604FF0FF3309E0084B1B687C
:10234000FB60074B1A687B681344054A1360FB68FF
:1023500018461837BD4680BD00000220000400006A
:10236000A002002078C1002080B400AF00BFBD46AD
:1023700080BC7047DFF834D00D480E490E4A002368
:1023800002E0D458C4500433C4188C42F9D30B4A29
:102390000B4C002301E013600432A242FBD3FFF791
:1023A000E3FF0EF029FAFFF7D7F97047000002208B
:1023B0000000002080020020483201088002002036
:1023C00078C10020FEE7000080B500AF0B4B1B6812
:1023D0000A4A43F400731360084B1B68074A43F42E
:1023E00080631360032000F04DF90F20FFF7BCFE5F
:1023F000FFF790FD0023184680BD00BF003C02405F
:1024000080B400AF054B1B781A46054B1B6813447C
:10241000034A136000BFBD4680BC7047080000201F
:1024200020C0002080B400AF024B1B681846BD4698
:1024300080BC704720C0002080B584B000AF7860B9
:10244000FFF7F0FFB8607B68FB60FB68B3F1FF3F0C
:1024500005D00A4B1B781A46FB681344FB6000BF8B
:10246000FFF7E0FF0246BB68D31AFA689A42F7D832
:1024700000BF00BF1037BD4680BD00BF0800002070
:1024800080B400AF024B1B681846BD4680BC704745
:10249000107AFF1F80B400AF024B1B681846BD4680
:1024A00080BC7047147AFF1F80B400AF024B1B68DA
:1024B0001846BD4680BC7047187AFF1F80B485B0AF
:1024C00000AF78607B6803F00703FB600C4BDB68B0
:1024D000BB60BA684FF6FF031340BB60FB681A028B
:1024E000BB68134343F0BF6343F40033BB60044A4B
:1024F000BB68D36000BF1437BD4680BC704700BFC7
:1025000000ED00E080B400AF044BDB681B0A03F071
:1025100007031846BD4680BC704700BF00ED00E0D1
:1025200080B483B000AF0346FB7197F90730002BEE
:102530000BDBFB7903F01F02064997F907305B09B3
:10254000012000FA02F241F8232000BF0C37BD46FB
:1025500080BC704700E100E080B483B000AF034668
:10256000FB7197F90730002B12DBFB7903F01F0298
:102570000A4997F907305B09012000FA02F220337B
:1025800041F82320BFF34F8F00BFBFF36F8F00BF11
:1025900000BF0C37BD4680BC704700BF00E100E0C3
:1025A00080B483B000AF03463960FB7197F9073000
:1025B000002B0ADB3B68DAB20C4997F907301201AD
:1025C000D2B20B4483F800230AE03B68DAB2084930
:1025D000FB7903F00F03043B1201D2B20B441A76CD
:1025E00000BF0C37BD4680BC704700BF00E100E073
:1025F00000ED00E080B489B000AFF860B9607A60A7
:10260000FB6803F00703FB61FB69C3F10703042BBD
:1026100028BF0423BB61FB690433062B02D9FB6985
:10262000033B00E000237B614FF0FF32BB6902FAFD
:1026300003F3DA43BB681A407B699A404FF0FF31DD
:102640007B6901FA03F3D9437B680B4013431846B7
:102650002437BD4680BC704780B400AFBFF34F8FB6
:1026600000BF064BDB6803F4E0620449044B1343EC
:10267000CB60BFF34F8F00BF00BFFDE700ED00E070
:102680000400FA0580B582B000AF78607868FFF783
:1026900015FF00BF0837BD4680BD80B586B000AFCE
:1026A0000346B9607A60FB7300237B61FFF72AFF62
:1026B00078617A68B9687869FFF79CFF024697F9F4
:1026C0000F3011461846FFF76BFF00BF1837BD46A5
:1026D00080BD80B582B000AF0346FB7197F907302B
:1026E0001846FFF71DFF00BF0837BD4680BD80B507
:1026F00082B000AF0346FB7197F907301846FFF729
:102700002BFF00BF0837BD4680BD80B500AFFFF787
:10271000A3FF80B483B000AF78607B6893F8353056
:10272000DBB2022B04D07B6880225A6501230CE0C7
:102730007B68052283F835207B681B681A687B68F4
:102740001B6822F001021A60002318460C37BD46B0
:1027500080BC704780B483B000AF78607B6893F82A
:102760003530DBB218460C37BD4680BC70470000E0
:1027700080B487B000AF7860396000237B616FE17F
:102780003B681A6801217B6901FA03F31340FB607F
:10279000FB68002B00F061813B685B6803F003037A
:1027A000012B05D03B685B6803F00303022B30D19B
:1027B0007B689B683B617B695B00032202FA03F341
:1027C000DB433A6913403B613B68DA687B695B0035
:1027D00002FA03F33A6913433B617B683A699A60F2
:1027E0007B685B683B6101227B6902FA03F3DB4390
:1027F0003A6913403B613B685B681B0903F00102C7
:102800007B6902FA03F33A6913433B617B683A69D7
:102810005A603B685B6803F00303032B17D07B68A7
:10282000DB683B617B695B00032202FA03F3DB4355
:102830003A6913403B613B689A687B695B0002FA26
:1028400003F33A6913433B617B683A69DA603B689A
:102850005B6803F00303022B23D17B69DA087B68F2
:10286000083253F822303B617B6903F007039B0079
:102870000F2202FA03F3DB433A6913403B613B68E2
:102880001A697B6903F007039B0002FA03F33A69B4
:1028900013433B617B69DA087B680832396943F886
:1028A00022107B681B683B617B695B00032202FA94
:1028B00003F3DB433A6913403B613B685B6803F019
:1028C00003027B695B0002FA03F33A6913433B613D
:1028D0007B683A691A603B685B6803F44033002BFD
:1028E00000F0BB800023BB60644B5B6C634A43F425
:1028F00080435364614B5B6C03F48043BB60BB68F3
:102900005F4A7B699B08023352F823303B617B6945
:1029100003F003039B000F2202FA03F3DB433A693F
:1029200013403B617B68574A934231D07B68564ADB
:1029300093422BD07B68554A934225D07B68544AFA
:1029400093421FD07B68534A934219D07B68524A06
:10295000934213D07B68514A93420DD07B68504A12
:10296000934207D07B684F4A934201D1082310E07D
:1029700009230EE007230CE006230AE0052308E004
:10298000042306E0032304E0022302E0012300E025
:1029900000237A6902F00302920093401A463B69D1
:1029A00013433B6136497B699B0802333A6941F81E
:1029B00023203D4B1B683B61FB68DB433A691340B6
:1029C0003B613B685B6803F48033002B03D03A69BA
:1029D000FB6813433B61344A3B691360324B5B68CD
:1029E0003B61FB68DB433A6913403B613B685B68D2
:1029F00003F40033002B03D03A69FB6813433B61B7
:102A0000294A3B695360284B9B683B61FB68DB4369
:102A10003A6913403B613B685B6803F48013002B09
:102A200003D03A69FB6813433B611F4A3B699360DB
:102A30001D4BDB683B61FB68DB433A6913403B613C
:102A40003B685B6803F40013002B03D03A69FB6812
:102A500013433B61144A3B69D3607B6901337B615B
:102A60003B681A687B6922FA03F3002B7FF488AE77
:102A700000BF00BF1C37BD4680BC70470038024015
:102A800000380140000002400004024000080240FB
:102A9000000C0240001002400014024000180240E6
:102AA000001C024000200240003C014080B487B07E
:102AB00000AF7860396000237B61D1E001227B693F
:102AC00002FA03F33A6813403B613B69002B00F0C4
:102AD000C4806A4A7B699B08023352F82330FB604A
:102AE0007B6903F003039B000F2202FA03F3FA68E9
:102AF0001340FB607B68624A934231D07B68614A35
:102B000093422BD07B68604A934225D07B685F4A12
:102B100093421FD07B685E4A934219D07B685D4A1E
:102B2000934213D07B685C4A93420DD07B685B4A2A
:102B3000934207D07B685A4A934201D1082310E0A0
:102B400009230EE007230CE006230AE0052308E032
:102B5000042306E0032304E0022302E0012300E053
:102B600000237A6902F00302920003FA02F2FB6882
:102B70009A4232D14B4B1A683B69DB4349491340B7
:102B80000B60484B5A683B69DB43464913404B6036
:102B9000444B9A683B69DB43424913408B60414B8D
:102BA000DA683B69DB433F491340CB607B6903F044
:102BB00003039B000F2202FA03F3FB602F4A7B6999
:102BC0009B08023352F82310FB68DA432B487B69D9
:102BD0009B080A40023340F823207B681A687B690F
:102BE0005B00032101FA03F3DB431A407B681A60A0
:102BF0007B69DA087B68083253F822107B6903F09E
:102C000007039B000F2202FA03F3DB437A69D20821
:102C100019407B68083243F822107B68DA687B69C8
:102C20005B00032101FA03F3DB431A407B68DA609F
:102C30007B685A6801217B6901FA03F3DB431A4080
:102C40007B685A607B689A687B695B00032101FAA4
:102C500003F3DB431A407B689A607B6901337B6135
:102C60003A687B6922FA03F3002B7FF427AF00BF99
:102C700000BF1C37BD4680BC704700BF0038014014
:102C8000000002400004024000080240000C024024
:102C9000001002400014024000180240001C0240D4
:102CA00000200240003C014080B485B000AF786055
:102CB0000B467B807B681A697B881340002B02D00F
:102CC0000123FB7301E00023FB73FB7B18461437E1
:102CD000BD4680BC704780B483B000AF78600B46BF
:102CE0007B8013467B707B78002B03D07A887B68CF
:102CF0009A6103E07B881A047B689A6100BF0C37F5
:102D0000BD4680BC7047000080B582B000AF03466E
:102D1000FB80084B5A69FB881340002B06D0054AFC
:102D2000FB885361FB881846FEF7D4FB00BF0837C9
:102D3000BD4680BD003C014080B584B000AF7860E6
:102D40007B68002B01D101232BE17B6893F83D3098
:102D5000DBB2002B06D17B68002283F83C20786828
:102D6000FFF704F97B68242283F83D207B681B6809
:102D70001A687B681B6822F001021A607B681B6876
:102D80001A687B681B6842F400421A607B681B6803
:102D90001A687B681B6822F400421A6003F0EAF8A4
:102DA000F8607B685B68814A934207D8FB68804A79
:102DB000934294BF01230023DBB206E0FB687D4A07
:102DC000934294BF01230023DBB2002B01D00123E7
:102DD000E7E0FB68784AA2FB03239B0CBB607B689F
:102DE0001B685B6823F03F017B681B68BA680A4375
:102DF0005A607B681B681B6A23F03F017B685B6835
:102E00006A4A934202D8BB68013309E0BB684FF4B9
:102E1000967202FB03F3694AA2FB03239B09013369
:102E20007A6812680B4313627B681B68DB6923F4C2
:102E30004F4222F0FF027B685B685C498B4219D8E5
:102E4000FB68591E7B685B685B00B1FBF3F3591CA0
:102E500040F6FC730B40002B0AD0FB68591E7B68C0
:102E60005B685B00B1FBF3F30133C3F30B0351E089
:102E700004234FE07B689B68002B11D1FB68581E30
:102E80007B6859680B465B000B44B0FBF3F30133DE
:102E9000C3F30B03002B0CBF01230023DBB212E0B2
:102EA000FB68581E7B6859680B469B000B449900D1
:102EB0000B44B0FBF3F30133C3F30B03002B0CBF44
:102EC00001230023DBB2002B01D0012322E07B6829
:102ED0009B68002B0ED1FB68581E7B6859680B4617
:102EE0005B000B44B0FBF3F30133C3F30B0343F478
:102EF00000430FE0FB68581E7B6859680B469B0037
:102F00000B4499000B44B0FBF3F30133C3F30B0301
:102F100043F44043796809681343CB617B681B68BD
:102F20001B6823F0C0017B68DA697B681B6A1A435F
:102F30007B681B680A431A607B681B689B6823F4E4
:102F4000034323F0FF037A6811697A68D26811435A
:102F50007A6812680B4393607B681B68DB6823F018
:102F6000FF017B685A697B689B691A437B681B6811
:102F70000A43DA607B681B681A687B681B6842F04A
:102F800001021A607B6800221A647B68202283F8A1
:102F90003D207B6800221A637B68002283F83E2074
:102FA000002318461037BD4680BD00BFA086010033
:102FB0007F841E00FF083D0083DE1B43D34D62105B
:102FC00080B582B000AF78607B68002B01D101230F
:102FD00021E07B68242283F83D207B681B681A6807
:102FE0007B681B6822F001021A607868FFF742F8DC
:102FF0007B6800221A647B68002283F83D207B688E
:1030000000221A637B68002283F83E207B6800223E
:1030100083F83C20002318460837BD4680BD0000D9
:1030200080B588B002AFF8607A601A460B467B81A3
:1030300013463B81FFF7F6F97861FB6893F83D3062
:10304000DBB2202B40F0E0807B6900931923012242
:103050007049F86802F0E4F80346002B01D002231F
:10306000D3E0FB6893F83C30012B01D10223CCE084
:10307000FB68012283F83C20FB681B681B6803F097
:103080000103012B07D0FB681B681A68FB681B68EB
:1030900042F001021A60FB681B681A68FB681B6833
:1030A00022F400621A60FB68212283F83D20FB684D
:1030B000102283F83E20FB6800221A64FB687A68BD
:1030C0005A62FB683A895A85FB685B8D9AB2FB6845
:1030D0001A85FB68504ADA6279897B693A6AF8682E
:1030E00001F0A6FE0346002B01D001238DE0002352
:1030F0003B61FB681B685B693B61FB681B689B6904
:103100003B613B6966E07A69396AF86802F05EF90A
:103110000346002B0DD0FB681B6C042B07D1FB680A
:103120001B681A68FB681B6842F400721A6001236E
:103130006BE0FB685B6A1A78FB681B681A61FB68C6
:103140005B6A5A1CFB685A62FB685B8D9BB2013B51
:103150009AB2FB685A85FB681B8D013B9AB2FB68EB
:103160001A85FB681B685B6903F00403042B1BD101
:10317000FB681B8D002B17D0FB685B6A1A78FB6815
:103180001B681A61FB685B6A5A1CFB685A62FB6821
:103190005B8D9BB2013B9AB2FB685A85FB681B8D25
:1031A000013B9AB2FB681A857A69396AF86802F0BD
:1031B0004EF90346002B0DD0FB681B6C042B07D186
:1031C000FB681B681A68FB681B6842F400721A608F
:1031D00001231AE0FB681B8D002B94D1FB681B6850
:1031E0001A68FB681B6842F400721A60FB682022B0
:1031F00083F83D20FB68002283F83E20FB68002214
:1032000083F83C20002300E0022318461837BD460F
:1032100080BD00BF020010000000FFFF80B58CB031
:1032200002AFF8607A601A460B467B8113463B81F9
:10323000FFF7F8F87862FB6893F83D30DBB2202B9B
:1032400040F00B827B6A0093192301227C49F868C5
:1032500001F0E6FF0346002B01D00223FEE1FB68EC
:1032600093F83C30012B01D10223F7E1FB680122E6
:1032700083F83C20FB681B681B6803F00103012BEB
:1032800007D0FB681B681A68FB681B6842F00102E4
:103290001A60FB681B681A68FB681B6822F40062EE
:1032A0001A60FB68222283F83D20FB68102283F815
:1032B0003E20FB6800221A64FB687A685A62FB6849
:1032C0003A895A85FB685B8D9AB2FB681A85FB6860
:1032D0005C4ADA6279897B6A3A6BF86801F02AFE07
:1032E0000346002B01D00123B8E1FB681B8D002BA6
:1032F00013D100233B62FB681B685B693B62FB6880
:103300001B689B693B623B6AFB681B681A68FB6829
:103310001B6842F400721A608CE1FB681B8D012B64
:103320001BD1FB681B681A68FB681B6822F480626B
:103330001A600023FB61FB681B685B69FB61FB682B
:103340001B689B69FB61FB69FB681B681A68FB686B
:103350001B6842F400721A606CE1FB681B8D022B43
:103360001BD1FB681B681A68FB681B6822F480622B
:103370001A60FB681B681A68FB681B6842F40062ED
:103380001A600023BB61FB681B685B69BB61FB685B
:103390001B689B69BB61BB694CE1FB681B681A68D1
:1033A000FB681B6842F480621A6000237B61FB6843
:1033B0001B685B697B61FB681B689B697B617B6940
:1033C00038E1FB681B8D032B00F2F180FB681B8D3D
:1033D000012B23D17A6A396BF86802F0ABF8034607
:1033E000002B01D0012339E1FB681B681A69FB68D7
:1033F0005B6AD2B21A70FB685B6A5A1CFB685A623D
:10340000FB681B8D013B9AB2FB681A85FB685B8DDC
:103410009BB2013B9AB2FB685A850BE1FB681B8D9E
:10342000022B4ED17B6A00933B6B00220649F86861
:1034300001F0F6FE0346002B08D001230EE100BF89
:10344000020010000000FFFF04000100FB681B6881
:103450001A68FB681B6842F400721A60FB681B68FC
:103460001A69FB685B6AD2B21A70FB685B6A5A1C05
:10347000FB685A62FB681B8D013B9AB2FB681A8598
:10348000FB685B8D9BB2013B9AB2FB685A85FB6877
:103490001B681A69FB685B6AD2B21A70FB685B6AC8
:1034A0005A1CFB685A62FB681B8D013B9AB2FB6891
:1034B0001A85FB685B8D9BB2013B9AB2FB685A850B
:1034C000B8E07B6A00933B6B00226649F86801F024
:1034D000A7FE0346002B01D00123BFE0FB681B6859
:1034E0001A68FB681B6822F480621A60FB681B681C
:1034F0001A69FB685B6AD2B21A70FB685B6A5A1C75
:10350000FB685A62FB681B8D013B9AB2FB681A8507
:10351000FB685B8D9BB2013B9AB2FB685A857B6A64
:1035200000933B6B00224F49F86801F079FE034697
:10353000002B01D0012391E0FB681B681A68FB682F
:103540001B6842F400721A60FB681B681A69FB680A
:103550005B6AD2B21A70FB685B6A5A1CFB685A62DB
:10356000FB681B8D013B9AB2FB681A85FB685B8D7B
:103570009BB2013B9AB2FB685A85FB681B681A69CB
:10358000FB685B6AD2B21A70FB685B6A5A1CFB6804
:103590005A62FB681B8D013B9AB2FB681A85FB6877
:1035A0005B8D9BB2013B9AB2FB685A8542E07A6A16
:1035B000396BF86801F0BEFF0346002B01D00123F0
:1035C0004CE0FB681B681A69FB685B6AD2B21A7030
:1035D000FB685B6A5A1CFB685A62FB681B8D013BE7
:1035E0009AB2FB681A85FB685B8D9BB2013B9AB26D
:1035F000FB685A85FB681B685B6903F00403042BB6
:1036000018D1FB681B681A69FB685B6AD2B21A7032
:10361000FB685B6A5A1CFB685A62FB681B8D013BA6
:103620009AB2FB681A85FB685B8D9BB2013B9AB22C
:10363000FB685A85FB681B8D002B7FF4C2AEFB68CC
:10364000202283F83D20FB68002283F83E20FB689F
:10365000002283F83C20002300E00223184628378C
:10366000BD4680BD0400010080B58AB002AFF8609D
:103670007A603B600B467B81FEF7D4FEF861012344
:10368000BB61FB6893F83D30DBB2202B40F0118129
:10369000FB690093192301228849F86801F0C0FDF5
:1036A0000346002B01D0022304E1FB6893F83C3071
:1036B000012B01D10223FDE0FB68012283F83C20AD
:1036C000FB681B681B6803F00103012B07D0FB6834
:1036D0001B681A68FB681B6842F001021A60FB68ED
:1036E0001B681A68FB681B6822F400621A60FB689A
:1036F000242283F83D20FB6800221A64FB68704A8C
:10370000DA62FB681B681A68FB681B6842F4807207
:103710001A60FB6900933B6800224FF00111F868C2
:1037200001F07EFD0346002B0DD0FB681B681B6873
:1037300003F48073B3F5807F03D1FB684FF400720C
:103740001A640323B6E07B89DBB21A46FB681B6868
:1037500002F0FE021A61FEF765FEF861FB681B6865
:103760005B6903F00203022B0CBF01230023DBB2D1
:10377000FB75FB681B685B6903F48063B3F5806FBE
:103780000CBF01230023DBB2BB7525E0FEF74AFE28
:103790000246FB69D31A3A689A4202D33B68002B6F
:1037A00003D1FB68A02283F83D20FB681B685B699E
:1037B00003F00203022B0CBF01230023DBB2FB75D5
:1037C000FB681B685B6903F48063B3F5806F0CBF13
:1037D00001230023DBB2BB75FB6893F83D30DBB2FD
:1037E000A02B05D0FB7D002B02D1BB7D002BCDD0C3
:1037F000FB68202283F83D20FB681B685B6903F0AF
:103800000203022B29D1FB681B681A68FB681B683E
:1038100042F400721A6000233B61FB681B685B691D
:103820003B61FB681B689B693B613B69FB690093DB
:10383000192301222149F86801F0F2FC0346002B0C
:1038400001D0012336E0FB68202283F83D20FB688D
:10385000002283F83C2000232CE0FB681B681A68D8
:10386000FB681B6842F400721A60FB681B686FF407
:1038700080625A61FB690093192301220F49F8689D
:1038800001F0CEFC0346002B01D0012312E0BB69FE
:103890000133BB61BA697B689A42FFF432AFFB68BF
:1038A000202283F83D20FB68002283F83C2001237E
:1038B00000E0022318462037BD4680BD02001000FC
:1038C0000000FFFF80B588B000AF78600023BB61C7
:1038D0007B681B685B687B617B68DB6A3B617B683C
:1038E00093F83E30FB737B6893F83D30BB73FB7BF2
:1038F000102B03D0FB7B402B40F0C1807B681B6802
:103900009B69BB617B681B685B69FB61FB6903F0BA
:103910000103002B0DD13B69B3F52A0F03D03B699E
:10392000B3F12A4F01D1012300E00023012B00F065
:103930003281FB6903F00103002B0CD07B695B0A29
:1039400003F00103002B06D0786801F077FE786859
:1039500000F0C8FC92E0FB69DB0803F00103002BD8
:1039600009D07B695B0A03F00103002B03D0786860
:1039700000F03DFD82E0FB695B0803F00103002BD2
:1039800009D07B695B0A03F00103002B03D0786840
:1039900000F056FD72E0BB699B0803F00103002BA9
:1039A0003BD07B681B685B6803F40063B3F5006F72
:1039B00000F0F380FB69DB0903F00103002B0FD05B
:1039C0007B699B0A03F00103002B09D0FB699B086C
:1039D00003F00103002B03D1786800F042F94DE0B9
:1039E000FB699B0803F00103002B00F0D6807B6984
:1039F0005B0A03F00103002B00F0CF80BB7B212B7F
:103A000003D1786800F0C9F9C7E0FB7B402B40F098
:103A1000C480786800F037FABFE07B681B685B6899
:103A200003F40063B3F5006F00F0B780FB699B09F6
:103A300003F00103002B0FD07B699B0A03F0010305
:103A4000002B09D0FB699B0803F00103002B03D175
:103A5000786800F0ACFA11E0FB699B0803F0010301
:103A6000002B00F09A807B695B0A03F00103002BB6
:103A700000F09380786800F04BFB8EE08DE07B686F
:103A80001B6C002B04D07B681B685B69FB6107E043
:103A90007B681B689B69BB617B681B685B69FB611A
:103AA000FB695B0803F00103002B12D07B695B0A02
:103AB00003F00103002B0CD07B681B6C002B03D0A0
:103AC0007B681B689B69BB61B969786800F004FF7B
:103AD00066E0FB691B0903F00103002B09D07B6939
:103AE0005B0A03F00103002B03D0786800F03EFF6F
:103AF00056E0BB7B212B02D0BB7B292B25D1FB6958
:103B0000DB0903F00103002B0FD07B699B0A03F054
:103B10000103002B09D0FB699B0803F00103002B74
:103B200003D1786800F01CFE39E0FB699B0803F0C4
:103B30000103002B33D07B695B0A03F00103002BE8
:103B40002DD0786800F049FE29E0FB699B0903F05D
:103B50000103002B0FD07B699B0A03F00103002BAC
:103B600009D0FB699B0803F00103002B03D178689F
:103B700000F053FE14E0FB699B0803F00103002BE7
:103B80000ED07B695B0A03F00103002B08D0786834
:103B900000F081FE04E000BF02E000BF00E000BFD3
:103BA0002037BD4680BD80B483B000AF786000BFD1
:103BB0000C37BD4680BC704780B483B000AF7860DE
:103BC00000BF0C37BD4680BC704780B483B000AFE7
:103BD000786000BF0C37BD4680BC704780B483B0AE
:103BE00000AF786000BF0C37BD4680BC704780B422
:103BF00083B000AF78600B46FB7013463B8000BF7C
:103C00000C37BD4680BC704780B483B000AF78608D
:103C100000BF0C37BD4680BC704780B483B000AF96
:103C2000786000BF0C37BD4680BC704780B483B05D
:103C300000AF786000BF0C37BD4680BC704780B4D1
:103C400083B000AF786000BF0C37BD4680BC7047C2
:103C500080B483B000AF786000BF0C37BD4680BC35
:103C6000704780B584B000AF78607B6893F83D30D2
:103C7000FB737B6893F83E30BB737B68DB6ABB6089
:103C80007B681B8D002B50D1FB7B212B4DD1BB685A
:103C9000082B1DD0BB68202B1AD0BB6813F5803FC2
:103CA00016D07B681B685A687B681B6822F4E06248
:103CB0005A607B6811221A637B68002283F83E20D9
:103CC0007B68202283F83D207868FFF76CFF60E076
:103CD0007B681B685A687B681B6822F4E0625A6044
:103CE0007B681B681A687B681B6842F400721A6064
:103CF0007B6800221A637B68202283F83D207B6862
:103D000093F83E30DBB2402B07D17B68002283F86A
:103D10003E207868FFF781FF3BE07B68002283F854
:103D20003E207868FFF73FFF33E0FB7B212B05D077
:103D3000BB7B402B2DD1FB7B222B2AD17B685B8D5B
:103D40009BB2002B08D17B681B685A687B681B6894
:103D500022F480625A601CE07B6893F83E30DBB24C
:103D6000402B03D1786800F08EF812E07B685B6A24
:103D70001A787B681B681A617B685B6A5A1C7B68CF
:103D80005A627B685B8D9BB2013B9AB27B685A8515
:103D9000FFE700BF1037BD4680BD80B584B000AFDF
:103DA00078607B68DB6AFB607B6893F83D30DBB250
:103DB000212B64D17B685B8D9BB2002B12D07B687A
:103DC0005B6A1A787B681B681A617B685B6A5A1C9D
:103DD0007B685A627B685B8D9BB2013B9AB27B68C1
:103DE0005A854CE0FB68082B1DD0FB68202B1AD0AD
:103DF000FB6813F5803F16D07B681B685A687B68A8
:103E00001B6822F4E0625A607B6811221A637B68A7
:103E1000002283F83E207B68202283F83D207868CA
:103E2000FFF7C1FE2BE07B681B685A687B681B6844
:103E300022F4E0625A607B681B681A687B681B6822
:103E400042F400721A607B6800221A637B682022A9
:103E500083F83D207B6893F83E30DBB2402B07D1DE
:103E60007B68002283F83E207868FFF7D6FE06E0E4
:103E70007B68002283F83E207868FFF794FE00BF3D
:103E80001037BD4680BD80B584B000AF78607B68D8
:103E900093F83D30FB737B681B6D002B1DD17B6855
:103EA000DB6C012B0BD17B689B6CDAB27B681B68E7
:103EB0001A617B681B6D9A1C7B681A6573E07B68CE
:103EC0009B6C9BB21B12DAB27B681B681A617B6821
:103ED0001B6D5A1C7B681A6565E07B681B6D012BA6
:103EE0000BD17B689B6CDAB27B681B681A617B68BC
:103EF0001B6D5A1C7B681A6555E07B681B6D022B95
:103F000051D1FB7B222B0DD17B681B681A687B6823
:103F10001B6842F480721A607B681B6D5A1C7B68B8
:103F20001A6540E07B685B8D9BB2002B15D0FB7B54
:103F3000212B12D17B685B6A1A787B681B681A6137
:103F40007B685B6A5A1C7B685A627B685B8D9BB29C
:103F5000013B9AB27B685A8525E07B685B8D9BB2FA
:103F6000002B20D1FB7B212B1DD17B681B685A685D
:103F70007B681B6822F4E0625A607B681B681A68E1
:103F80007B681B6842F400721A607B6800221A6327
:103F90007B68202283F83D207B68002283F83E2046
:103FA0007868FFF73AFE00BF1037BD4680BD80B588
:103FB00084B000AF78607B6893F83D30DBB2222B91
:103FC00040F0A2807B685B8D9BB2FB60FB68032B9B
:103FD00021D97B681B681A697B685B6AD2B21A7048
:103FE0007B685B6A5A1C7B685A627B685B8D9BB2FC
:103FF000013B9AB27B685A857B685B8D9BB2032B31
:1040000040F082807B681B685A687B681B6822F4DA
:1040100080625A6078E07B68DB6A022B74D0FB68B0
:10402000012B02D0FB68002B6ED1786801F050FAAA
:104030000346002B42D17B681B681A687B681B68AB
:1040400022F480621A607B681B685A687B681B6870
:1040500022F4E0625A607B681B681A697B685B6ABD
:10406000D2B21A707B685B6A5A1C7B685A627B68A2
:104070005B8D9BB2013B9AB27B685A857B6820229C
:1040800083F83D207B6893F83E30DBB2402B0AD1A9
:104090007B68002283F83E207B6800221A637868E0
:1040A000FFF7C4FD30E07B68002283F83E207B6888
:1040B00012221A637868FFF77FFD25E07B681B6892
:1040C0005A687B681B6822F4E0625A607B681B6850
:1040D0001A697B685B6AD2B21A707B685B6A5A1C89
:1040E0007B685A627B685B8D9BB2013B9AB27B68AE
:1040F0005A857B68202283F83D207B68002283F864
:104100003E207868FFF79BFD00BF1037BD4680BD9D
:1041100080B584B000AF78607B68DB6AFB607B6849
:104120005B8D9BB2042B1BD17B681B685A687B6834
:104130001B6822F480625A607B681B681A697B687E
:104140005B6AD2B21A707B685B6A5A1C7B685A62DF
:104150007B685B8D9BB2013B9AB27B685A85BDE060
:104160007B685B8D9BB2032B29D17B681B685A68E7
:104170007B681B6822F480625A60FB68042B0AD0BB
:10418000FB68022B07D07B681B681A687B681B687A
:1041900022F480621A607B681B681A697B685B6A1C
:1041A000D2B21A707B685B6A5A1C7B685A627B6861
:1041B0005B8D9BB2013B9AB27B685A858EE07B682F
:1041C0005B8D9BB2022B76D1FB68012B02D0FB6882
:1041D000102B08D17B681B681A687B681B6822F467
:1041E00080621A6019E0FB68042B02D0FB68022B86
:1041F00008D17B681B681A687B681B6842F4806280
:104200001A600AE0FB68102B07D07B681B681A68ED
:104210007B681B6842F400721A607B681B681A692D
:104220007B685B6AD2B21A707B685B6A5A1C7B68D7
:104230005A627B685B8D9BB2013B9AB27B685A8560
:104240007B681B681A697B685B6AD2B21A707B68EC
:104250005B6A5A1C7B685A627B685B8D9BB2013B30
:104260009AB27B685A857B681B685A687B681B68B2
:1042700022F440725A607B68202283F83D207B68DC
:1042800093F83E30DBB2402B0AD17B68002283F8E2
:104290003E207B6800221A637868FFF7C7FC1DE0A8
:1042A0007B68002283F83E207B6812221A637868BC
:1042B000FFF782FC12E07B681B681A697B685B6A07
:1042C000D2B21A707B685B6A5A1C7B685A627B6840
:1042D0005B8D9BB2013B9AB27B685A8500BF103759
:1042E000BD4680BD80B483B000AF78607B6893F832
:1042F0003E30DBB2402B17D17B681B6D002B09D100
:104300007B685B6CDBB21A467B681B6802F0FE02BE
:104310001A6167E07B685B6CDBB243F00103DAB2E1
:104320007B681B681A615DE07B681B69B3F5804F91
:1043300033D17B6893F83D30DBB2212B09D17B6808
:104340005B6CDBB21A467B681B6802F0FE021A61E6
:1043500008E07B685B6CDBB243F00103DAB27B6898
:104360001B681A617B685B6B002B04D07B685B6BFE
:10437000DB6B002B08D17B689B6B002B32D07B68FA
:104380009B6BDB6B002B2DD07B681B685A687B68AE
:104390001B6842F400625A6024E07B681B6D002BAE
:1043A0000ED17B685B6C9BB2DB11DBB203F00603C2
:1043B000DBB263F00F03DAB27B681B681A6111E0AD
:1043C0007B681B6D012B0DD17B685B6C9BB2DB1195
:1043D000DBB203F00603DBB263F00E03DAB27B68F4
:1043E0001B681A6100BF0C37BD4680BC704780B4A3
:1043F00083B000AF78607B685B6CDAB27B681B6867
:104400001A617B685B6B002B04D07B685B6BDB6B9A
:10441000002B08D17B689B6B002B0CD07B689B6BBF
:10442000DB6B002B07D07B681B685A687B681B68B6
:1044300042F400625A6000BF0C37BD4680BC704732
:1044400080B491B000AF78607B6893F83E3087F815
:104450003F307B68DB6ABB637B681B6B7B637B687D
:1044600093F83D30DBB2222B40F069817B681B6DF5
:10447000002B0FD197F83F30402B0BD100233B632B
:104480007B681B685B693B637B681B689B693B635C
:104490003B6B60E17B681B6D002B1DD17B681B694A
:1044A000B3F5404F18D10023FB627B681B685B6942
:1044B000FB627B681B689B69FB62FB6A7B681B680D
:1044C0001A687B681B6842F480721A607B681B6DF7
:1044D0005A1C7B681A653EE17B685B8D9BB2002BA2
:1044E00013D10023BB627B681B685B69BB627B687E
:1044F0001B689B69BB62BB6A7B681B681A687B6828
:104500001B6842F400721A6015E17B685B8D9BB2F8
:10451000012B40F08A80BB6B13F5803F37D17B685D
:104520001B681A687B681B6822F480621A607B68CB
:104530001B685B6803F40063B3F5006F13D17B68FD
:104540001B681A687B681B6822F480621A6000236B
:104550007B627B681B685B697B627B681B689B690D
:104560007B627B6AE7E000233B627B681B685B69D8
:104570003B627B681B689B693B623B6A7B681B688C
:104580001A687B681B6842F400721A60D3E0BB6B48
:10459000082B2ED0BB6B202B2BD07B6B122B02D188
:1045A000BB6B012B25D1BB6B042B0ED0BB6B022B3D
:1045B0000BD0BB6B102B08D07B681B681A687B681C
:1045C0001B6822F480621A6007E07B681B681A6827
:1045D0007B681B6842F480621A600023FB617B6881
:1045E0001B685B69FB617B681B689B69FB61FB69FE
:1045F000A1E07B681B681A687B681B6822F48062F4
:104600001A600023BB617B681B685B69BB617B68C8
:104610001B689B69BB61BB697B681B681A687B6808
:104620001B6842F400721A6085E07B685B8D9BB268
:10463000022B4DD1BB6B042B16D0BB6B022B13D0BE
:10464000BB6B102B10D07B681B681A687B681B68DB
:1046500022F480621A607B681B681A687B681B689A
:1046600042F400621A6007E07B681B681A687B6886
:104670001B6842F480621A607B681B685B6803F405
:104680000063B3F5006F17D1BB6B13F5803F0BD000
:10469000BB6B012B08D0BB6B082B05D0BB6B102B61
:1046A00002D0BB6B202B07D17B681B685A687B68E4
:1046B0001B6842F480525A6000237B617B681B6850
:1046C0005B697B617B681B689B697B617B6932E00E
:1046D0007B681B681A687B681B6842F480621A60FA
:1046E0007B681B685B6803F40063B3F5006F17D148
:1046F000BB6B13F5803F0BD0BB6B012B08D0BB6BA2
:10470000082B05D0BB6B102B02D0BB6B202B07D125
:104710007B681B685A687B681B6842F480525A6049
:1047200000233B617B681B685B693B617B681B689E
:104730009B693B613B697B6800221A650BE00023A3
:10474000FB607B681B685B69FB607B681B689B691F
:10475000FB60FB68FFE700BF4437BD4680BC704785
:1047600080B584B000AF78607B6893F83D30FB7310
:104770007B685B8D9BB2002B2BD07B685B6A1A78C1
:104780007B681B681A617B685B6A5A1C7B685A628B
:104790007B685B8D9BB2013B9AB27B685A857B68D4
:1047A0005B8D9BB2002B14D1FB7B292B11D17B6835
:1047B0001B685A687B681B6822F480625A607B68B9
:1047C00021221A637B68282283F83D207868FFF74E
:1047D000FCF900BF1037BD4680BD80B483B000AF88
:1047E00078607B685B8D9BB2002B11D07B685B6A25
:1047F0001A787B681B681A617B685B6A5A1C7B6845
:104800005A627B685B8D9BB2013B9AB27B685A858A
:1048100000BF0C37BD4680BC704780B584B000AF88
:1048200078607B6893F83D30FB737B685B8D9BB24F
:10483000002B2CD07B681B681A697B685B6AD2B23C
:104840001A707B685B6A5A1C7B685A627B685B8D56
:104850009BB2013B9AB27B685A857B685B8D9BB2A9
:10486000002B14D1FB7B2A2B11D17B681B685A6863
:104870007B681B6822F480625A607B6822221A637C
:104880007B68282283F83D207868FFF7A7F900BFEE
:104890001037BD4680BD80B483B000AF78607B68C0
:1048A0005B8D9BB2002B12D07B681B681A697B68FA
:1048B0005B6AD2B21A707B685B6A5A1C7B685A6268
:1048C0007B685B8D9BB2013B9AB27B685A8500BFC7
:1048D0000C37BD4680BC704780B584B000AF7860AF
:1048E00039600023FB737B6893F83D30DBB203F043
:1048F0002803282B27D17B681B685A687B681B68B4
:1049000022F480625A603B689B0803F00103002B8D
:1049100001D10123FB733B68DB0903F00103002B8A
:1049200003D17B68DB68BB8102E07B689B69BB814C
:104930007B68002283F83C20BA89FB7B19467868A3
:10494000FFF755F90EE00023BB607B681B685B69CD
:10495000BB607B681B689B69BB60BB687B6800228F
:1049600083F83C2000BF1037BD4680BD80B584B0C1
:1049700000AF78607B6893F83D30FB737B681B6801
:104980005A687B681B6822F4E0625A600023BB60AF
:104990007B681B685B69BB607B681B681A687B6807
:1049A0001B6842F001021A60BB687B681B681A68CA
:1049B0007B681B6822F480621A607B681B685B68F6
:1049C00003F40063B3F5006F72D1FB7B222B02D09E
:1049D000FB7B2A2B35D17B689B6B1B685B689AB28B
:1049E0007B685A857B685B8D9BB2002B05D07B680A
:1049F0001B6C43F004027B681A647B681B685A686E
:104A00007B681B6822F400625A607B689B6B1846C7
:104A1000FDF7A0FE0346012B49D07B689B6B694ADA
:104A20001A657B689B6B1846FDF773FE0346002BE7
:104A30003DD07B689B6B1B6D7A68926B10469847E4
:104A400035E07B685B6B1B685B689AB27B685A8554
:104A50007B685B8D9BB2002B05D07B681B6C43F0A1
:104A600004027B681A647B681B685A687B681B6851
:104A700022F400625A607B685B6B1846FDF76AFEA1
:104A80000346012B14D07B685B6B4E4A1A657B682A
:104A90005B6B1846FDF73DFE0346002B08D07B6894
:104AA0005B6B1B6D7A68526B1046984700E000BF45
:104AB0007B685B8D9BB2002B3ED07B681B685B697B
:104AC00003F00403042B12D17B681B681A697B680E
:104AD0005B6AD2B21A707B685B6A5A1C7B685A6246
:104AE0007B685B8D9BB2013B9AB27B685A857B6881
:104AF0001B685B6903F04003402B12D17B681B6885
:104B00001A697B685B6AD2B21A707B685B6A5A1C4E
:104B10007B685A627B685B8D9BB2013B9AB27B6873
:104B20005A857B685B8D9BB2002B05D07B681B6C24
:104B300043F004027B681A647B681B6C002B03D073
:104B4000786800F043F839E0FB7B2A2B09D17B68B9
:104B500000221A637B68282283F83D207868FFF7DB
:104B60003DF87B6893F83D30DBB2282B11D17B6890
:104B7000154ADA627B6800221A637B68202283F878
:104B80003D207B68002283F83E207868FFF73CF8E0
:104B900014E07B681B6B222B02D0FB7B222B0DD1F8
:104BA0007B6800221A637B68202283F83D207B68A3
:104BB000002283F83E207868FFF710F800BF103716
:104BC000BD4680BDD15000080000FFFF80B584B015
:104BD00000AF78607B6893F83D30FB737B6893F897
:104BE0003E30BB73BB7B102B02D0BB7B402B0AD16A
:104BF000FB7B222B07D17B681B681A687B681B68CC
:104C000022F400621A60FB7B03F02803282B07D1F3
:104C10007B6800221A637B68282283F83D2015E018
:104C20007B681B685B6803F40063B3F5006F0AD010
:104C3000FB7B602B07D07B68202283F83D207B68BC
:104C4000002283F83E207B6800221A637B681B6881
:104C50005B6803F40063B3F5006F62D17B681B6887
:104C60005A687B681B6822F400625A607B685B6B41
:104C700093F83530DBB2012B20D07B685B6B6A4A3E
:104C80001A657B685B6B1846FDF743FD0346002BF6
:104C900000F089807B681B681A687B681B6822F0BB
:104CA00001021A607B68202283F83D207B685B6BE1
:104CB0001B6D7A68526B1046984774E07B689B6B5B
:104CC000594A1A657B689B6B1846FDF722FD03461F
:104CD000002B68D07B681B685B6903F04003402BA6
:104CE0000BD17B681B681A697B685B6AD2B21A7049
:104CF0007B685B6A5A1C7B685A627B681B681A680F
:104D00007B681B6822F001021A607B68202283F80E
:104D10003D207B689B6B1B6D7A68926B10469847B1
:104D200041E07B6893F83D30DBB2602B25D17B6896
:104D3000202283F83D207B6800221A647B681B6870
:104D40005B6903F04003402B0BD17B681B681A6939
:104D50007B685B6AD2B21A707B685B6A5A1C7B689C
:104D60005A627B681B681A687B681B6822F0010224
:104D70001A607868FEF76CFF15E07B681B685B695A
:104D800003F04003402B0BD17B681B681A697B68DA
:104D90005B6AD2B21A707B685B6A5A1C7B685A6283
:104DA0007868FEF74CFF7B681B6CBB60BB6803F048
:104DB0000103002B0ED1BB6803F00203002B09D1C5
:104DC000BB6803F00403002B04D1BB6803F00803A5
:104DD000002B07D07B681B685A687B681B6822F42D
:104DE000E0625A607B6893F83D30FB737B681B6C14
:104DF00003F00403042B13D1FB7B282B10D17B6819
:104E00000A4ADA627B6800221A637B68202283F8F0
:104E10003D207B68002283F83E207868FEF7F4FE90
:104E200000BF1037BD4680BDD15000080000FFFF15
:104E300080B588B002AFF8607A603B600B467B813A
:104E4000FB68DB6A7B617B69082B06D07B69012BE1
:104E500003D07B6913F5803F08D1FB681B681A6893
:104E6000FB681B6842F480721A600BE0FB681B6BE6
:104E7000122B07D1FB681B681A68FB681B6842F499
:104E800080721A603B6800937B6800224FF001112A
:104E9000F86800F0C5F90346002B0DD0FB681B68CD
:104EA0001B6803F48073B3F5807F03D1FB684FF474
:104EB00000721A64032335E0FB681B69B3F5804F69
:104EC00008D17B89DBB21A46FB681B6802F0FE0240
:104ED0001A611BE07B89DB11DBB203F00603DBB256
:104EE00063F00F03DAB2FB681B681A613B687A68EB
:104EF0000E49F86800F0EBF90346002B01D00123BE
:104F000010E07B89DAB2FB681B681A613B687A683B
:104F10000749F86800F0DBF90346002B01D00123B4
:104F200000E0002318461837BD4680BD0800010088
:104F30000200010080B588B002AFF8607A603B6083
:104F40000B467B81FB68DB6A7B61FB681B681A6828
:104F5000FB681B6842F480621A607B69082B06D0EC
:104F60007B69012B03D07B6913F5803F08D1FB6877
:104F70001B681A68FB681B6842F480721A600BE0B9
:104F8000FB681B6B112B07D1FB681B681A68FB6859
:104F90001B6842F480721A603B6800937B680022B1
:104FA0004FF00111F86800F03BF90346002B0DD0DB
:104FB000FB681B681B6803F48073B3F5807F03D123
:104FC000FB684FF400721A64032379E0FB681B69E5
:104FD000B3F5804F08D17B89DBB243F00103DAB22D
:104FE000FB681B681A615FE07B89DB11DBB203F0B1
:104FF0000603DBB263F00F03DAB2FB681B681A61C9
:105000003B687A683049F86800F061F90346002B84
:1050100001D0012354E07B89DAB2FB681B681A6176
:105020003B687A682949F86800F051F90346002B7B
:1050300001D0012344E000233B61FB681B685B69EE
:105040003B61FB681B689B693B613B69FB681B68B4
:105050001A68FB681B6842F480721A603B68009310
:105060007B6800224FF00111F86800F0D9F8034680
:10507000002B0DD0FB681B681B6803F48073B3F52D
:10508000807F03D1FB684FF400721A64032317E09A
:105090007B89DB11DBB203F00603DBB263F00E03A6
:1050A000DAB2FB681B681A613B687A680749F868DE
:1050B00000F00DF90346002B01D0012300E000238E
:1050C00018461837BD4680BD0800010002000100E7
:1050D00080B586B000AF78600023FB607B689B6B77
:1050E0007B617B6993F83D30FB744B4B1B68DB089D
:1050F0004A4AA2FB03231A0A13469B001344DA0010
:10510000D31AFB60FB68002B06D17B691B6C43F054
:1051100020027B691A640AE0FB68013BFB607B6943
:105120001B681B6803F40073B3F5007FEAD07B694A
:105130005B6B002B03D07B695B6B0022DA637B69BE
:105140009B6B002B03D07B699B6B0022DA637B692E
:105150001B681A687B691B6822F480621A607B698D
:1051600000225A857B695B6B002B03D07B695B6BEC
:1051700000221A657B699B6B002B03D07B699B6BBC
:1051800000221A657B691B681A687B691B6822F01C
:1051900001021A607B6993F83D30DBB2602B0ED1BF
:1051A0007B69202283F83D207B69002283F83E2022
:1051B0007B6900221A647869FEF74AFD27E0FB7CD0
:1051C00003F02803282B17D17B691B681A687B69B9
:1051D0001B6842F001021A607B691B681A687B69D0
:1051E0001B6842F480621A607B6900221A637B6943
:1051F000282283F83D2007E07B69202283F83D20A8
:105200007B69002283F83E207869FEF718FD00BF15
:105210001837BD4680BD00BF0000002089B5F814D6
:1052200080B584B000AFF860B9603B601346FB7195
:1052300025E03B68B3F1FF3F21D0FDF7F3F80246CC
:10524000BB69D31A3A689A4202D33B68002B16D145
:10525000FB6800221A63FB68202283F83D20FB686C
:10526000002283F83E20FB681B6C43F02002FB68A1
:105270001A64FB68002283F83C20012323E0BB680A
:105280001B0CDBB2012B0DD1FB681B685B69DA4399
:10529000BB6813409BB2002B0CBF01230023DBB281
:1052A0001A460CE0FB681B689B69DA43BB68134035
:1052B0009BB2002B0CBF01230023DBB21A46FB7903
:1052C0009A42B6D0002318461037BD4680BD80B53F
:1052D00084B000AFF860B9607A603B6051E0FB6871
:1052E0001B685B6903F48063B3F5806F23D1FB68AF
:1052F0001B681A68FB681B6842F400721A60FB683E
:105300001B686FF480625A61FB6800221A63FB68B5
:10531000202283F83D20FB68002283F83E20FB68B2
:105320001B6C43F00402FB681A64FB68002283F8DC
:105330003C20012346E07B68B3F1FF3F21D0FDF71D
:1053400071F802463B68D31A7A689A4202D37B68A6
:10535000002B16D1FB6800221A63FB68202283F819
:105360003D20FB68002283F83E20FB681B6C43F065
:105370002002FB681A64FB68002283F83C200123AA
:1053800020E0BB681B0CDBB2012B0CD1FB681B6857
:105390005B69DA43BB6813409BB2002B14BF012347
:1053A0000023DBB20BE0FB681B689B69DA43BB6838
:1053B00013409BB2002B14BF01230023DBB2002B50
:1053C0008DD1002318461037BD4680BD80B584B00E
:1053D00000AFF860B9607A602DE0F86800F000F97D
:1053E0000346002B01D001232DE0BB68B3F1FF3F42
:1053F00021D0FDF717F802467B68D31ABA689A42A3
:1054000002D3BB68002B16D1FB6800221A63FB682D
:10541000202283F83D20FB68002283F83E20FB68B1
:105420001B6C43F02002FB681A64FB68002283F8BF
:105430003C20012307E0FB681B685B6903F08003E5
:10544000802BCAD1002318461037BD4680BD80B5D9
:1054500084B000AFF860B9607A602DE0F86800F0C1
:10546000BFF80346002B01D001232DE0BB68B3F148
:10547000FF3F21D0FCF7D6FF02467B68D31ABA68FB
:105480009A4202D3BB68002B16D1FB6800221A6334
:10549000FB68202283F83D20FB68002283F83E2031
:1054A000FB681B6C43F02002FB681A64FB68002257
:1054B00083F83C20012307E0FB681B685B6903F06D
:1054C0000403042BCAD1002318461037BD4680BD03
:1054D00080B485B000AF78600023FB60134B1B687D
:1054E000DB08134AA2FB03231A0A13469B0013444A
:1054F000FB60FB68013BFB60FB68002B07D17B680E
:105500001B6C43F020027B681A64012308E07B686F
:105510001B681B6803F40073B3F5007FE9D0002318
:1055200018461437BD4680BC704700BF00000020FD
:1055300089B5F81480B584B000AFF860B9607A60BE
:1055400042E0FB681B685B6903F01003102B19D164
:10555000FB681B686FF010025A61FB6800221A6337
:10556000FB68202283F83D20FB68002283F83E2060
:10557000FB681A6CFB681A64FB68002283F83C2005
:10558000012329E0FCF74EFF02467B68D31ABA6874
:105590009A4202D3BB68002B16D1FB6800221A6323
:1055A000FB68202283F83D20FB68002283F83E2020
:1055B000FB681B6C43F02002FB681A64FB68002246
:1055C00083F83C20012307E0FB681B685B6903F05C
:1055D0004003402BB5D1002318461037BD4680BD8F
:1055E00080B483B000AF78607B681B685B6903F4AC
:1055F0008063B3F5806F1BD17B681B686FF480629A
:105600005A617B6800221A637B68202283F83D2060
:105610007B68002283F83E207B681B6C43F0040209
:105620007B681A647B68002283F83C20012300E039
:10563000002318460C37BD4680BC704780B483B049
:1056400000AF78607B68DB6AB3F52A0F03D17B6813
:105650000122DA6207E07B68DB6AB3F12A4F02D1EC
:105660007B680822DA6200BF0C37BD4680BC7047F9
:1056700080B584B000AF78607B68002B01D1012336
:1056800034E07B681B684CF6CC421A607B681B6870
:1056900045F255521A607B681B687A6852685A60F6
:1056A0007B681B687A6892689A60FCF7BBFEF860BA
:1056B0000FE0FCF7B7FE0246FB68D31A312B08D97E
:1056C0007B681B68DB6803F00303002B01D0032316
:1056D0000CE07B681B68DB6803F00303002BE8D158
:1056E0007B681B684AF6AA221A6000231846103706
:1056F000BD4680BD80B483B000AF78607B681B6816
:105700004AF6AA221A60002318460C37BD4680BC10
:105710007047000080B584B000AF0023FB604FF4F9
:105720000073BB60BB6893FAA3F37B607B68B3FA3A
:1057300083F3DBB21A460F4B13449B001A46012336
:105740001360FCF76FFEF86009E0FCF76BFE0246A1
:10575000FB68D31AB3F57A7F01D9032306E0064B21
:105760005B6803F00803082BEFD1002318461037BD
:10577000BD4680BD208083100070004080B58AB097
:1057800000AF78607B68002B01D1012337E27B6892
:105790001B6803F00103002B50D0A34B9B6803F060
:1057A0000C03042B0CD0A04B9B6803F00C03082BBC
:1057B00012D19D4B5B6803F48003B3F5800F0BD1CE
:1057C000994B1B6803F40033002B36D07B685B6871
:1057D000002B32D1012312E27B685A68934BD2B27C
:1057E0001A707B685B68002B13D0FCF71BFE3862D5
:1057F00008E0FCF717FE02463B6AD31A642B01D976
:105800000323FCE1884B1B6803F40033002BF0D02A
:1058100014E0FCF707FE386208E0FCF703FE0246DE
:105820003B6AD31A642B01D90323E8E17E4B1B6842
:1058300003F40033002BF0D100E000BF7B681B684D
:1058400003F00203002B77D0774B9B6803F00C0327
:10585000002B0BD0744B9B6803F00C03082B26D154
:10586000714B5B6803F48003002B20D16E4B1B68E7
:1058700003F00203002B05D07B68DB68012B01D00D
:105880000123BCE1684B1B6823F0F8027B681B69AD
:10589000F821B961B96991FAA1F179617969B1FA2F
:1058A00081F1C9B28B40604913430B6044E07B68CF
:1058B000DB68002B2AD05E4B01221A60FCF7B2FD98
:1058C000386208E0FCF7AEFD02463B6AD31A022BB1
:1058D00001D9032393E1544B1B6803F00203002B0F
:1058E000F0D0514B1B6823F0F8027B681B69F8214C
:1058F0003961396991FAA1F1F960F968B1FA81F178
:10590000C9B28B40484913430B6015E0484B002255
:105910001A60FCF787FD386208E0FCF783FD024659
:105920003B6AD31A022B01D9032368E13E4B1B6863
:1059300003F00203002BF0D17B681B6803F008031F
:10594000002B30D07B685B69002B16D0394B0122CD
:105950001A60FCF767FD386208E0FCF763FD024659
:105960003B6AD31A022B01D9032348E12E4B5B6F0C
:1059700003F00203002BF0D015E02E4B00221A603A
:10598000FCF750FD386208E0FCF74CFD02463B6A2C
:10599000D31A022B01D9032331E1234B5B6F03F0B0
:1059A0000203002BF0D17B681B6803F00403002B7B
:1059B00000F08880002387F827301B4B1B6C03F016
:1059C0008053002B10D10023BB60174B1B6C164A71
:1059D00043F080531364144B1B6C03F08053BB6083
:1059E000BB68012387F82730134B1B68124A43F426
:1059F00080731360104B1B6803F48073002B23D15A
:105A00000D4B1B680C4A43F480731360FCF70AFDCE
:105A1000386213E0FCF706FD02463B6AD31A022BFC
:105A20000CD90323EBE000BF0038024002380240EB
:105A300000004742800E474200700040724B1B68D6
:105A400003F48073002BE5D07B689A686F4BD2B269
:105A50001A707B689B68002B15D0FCF7E3FC38625A
:105A60000AE0FCF7DFFC02463B6AD31A41F28832B7
:105A7000934201D90323C2E0654B1B6F03F002037D
:105A8000002BEED014E0FCF7CDFC38620AE0FCF706
:105A9000C9FC02463B6AD31A41F28832934201D9CB
:105AA0000323ACE05A4B1B6F03F00203002BEED133
:105AB00097F82730012B05D1554B1B6C544A23F026
:105AC000805313647B689B69002B00F09780504BD8
:105AD0009B6803F00C03082B61D07B689B69022B49
